:020000040800F2
:10000000100B0020C101000871120008C30F000886
:10001000A911000805030008D71700080000000018
:100020000000000000000000000000007117000840
:100030000703000800000000B5120008731700084D
:10004000DB010008DB010008DB010008DB01000820
:10005000DB010008DB010008DB01000809030008E0
:100060000F030008150300081B030008DB0100084C
:10007000DB010008DB010008DB010008DB010008F0
:10008000DB010008DB010008DB010008DB010008E0
:10009000DB010008DB010008DB010008DB010008D0
:1000A000DB010008DB010008DB010008DB010008C0
:1000B000DB010008DB010008DB010008DB010008B0
:1000C000DB010008DB010008DB010008DB010008A0
:1000D000DB010008DB010008DB010008DB01000890
:1000E000DB010008DB010008DB01000800F002F87A
:1000F00000F03CF80AA090E8000C82448344AAF186
:100100000107DA4501D100F031F8AFF2090EBAE883
:100110000F0013F0010F18BFFB1A43F0010318473B
:10012000B81F0000D81F0000103A24BF78C878C15B
:10013000FAD8520724BF30C830C144BF04680C60ED
:10014000704700000023002400250026103A28BF35
:1001500078C1FBD8520728BF30C148BF0B60704739
:100160001FB500F062F81FBD10B510BD00F095F886
:100170001146FFF7F5FF01F06BFB00F0B3F803B495
:10018000FFF7F2FF03BC00F0B7F800000B49D1F80D
:1001900000C04A685CF8043B1068184442F8040B3D
:1001A0008C4528BFA1F1DC0C8A4228BFA1F1DC02FA
:1001B000C1F800C04A6020F000407047A804002049
:1001C0000948804709480047FEE7FEE7FEE7FEE7EB
:1001D000FEE7FEE7FEE7FEE7FEE7FEE70448054927
:1001E000054A064B70470000D5170008ED000008CF
:1001F00010050020100B0020100700201007002021
:100200000B4910B5A1F17C020A4CC2E93712372123
:1002100006E000EB104342F82130074B00FB03409F
:100220000B1EA1F10101F4DC10BD0120E8E7000084
:1002300048040020E119D666CD0D01004FF0000200
:1002400000B5134694469646203922BFA0E80C50CC
:10025000A0E80C50B1F12001BFF4F7AF090728BFA7
:10026000A0E80C5048BF0CC05DF804EB890028BF23
:1002700040F8042B08BF704748BF20F8022B11F04C
:10028000804F18BF00F8012B7047704770477047C8
:1002900000487047B004002070477546FFF7F8FF2C
:1002A000AE4605006946534620F00700854618B063
:1002B00020B5FFF793FFBDE820404FF000064FF058
:1002C00000074FF000084FF0000B21F00701AC468B
:1002D000ACE8C009ACE8C009ACE8C009ACE8C009AA
:1002E0008D46704710B50446AFF300802046BDE848
:1002F0001040FFF744BF000001491820ABBEFEE7E5
:1003000026000200FEE77047022000F013B9042027
:1003100000F010B9082000F00DB9102000F00AB963
:100320002DE9F041FFF732FF162190FBF1F201FBBE
:100330001200194C00EB40006FF0010101EB40008E
:100340002060FFF723FF1B2190FBF1F201FB12005D
:1003500000EB4000022101EB400060600025283CDA
:10036000052140230D4A656228465026C4F80C102A
:1003700000EB400742F8303002EBC00C06EB4707B9
:10038000401CCCF804708842F2DB40F2FF7001F0B0
:10039000C1F8A560BDE8F0813C000020AC00002061
:1003A000F8B54FF478400090184805231A46818824
:1003B0000088891E801E89B280B201F04FF8134D6B
:1003C00040F2FF70283D0090A88A0523801E81B26C
:1003D000288A1A46801E80B201F040F800241F27A8
:1003E0000B4E0EE006EBC400009780880523801EAC
:1003F00081B236F834001A46801E80B201F02EF821
:10040000641CE8688442EDDBF8BD00003C0000207D
:10041000AC00002070B51F4C1F4821680268A0F195
:100420002805914208D161684068814204D1E8689A
:10043000401CE86000F01EFFE86804EBC00151F8C2
:10044000082D2A614968696108E000BF04EBC0011A
:1004500051F8082D44F830204A68CA60401E002830
:10046000F4DC286A30B1012807D0022809D003281B
:100470000AD00CE06068801F01E06068801D606049
:1004800005E02068801D01E02068801F20600020BA
:1004900070BD0000AC0000203C00002070B5044698
:1004A00000F052F90546601C02D00448007804446C
:1004B00000F04AF9401BA042FAD370BD440000206E
:1004C00010B5044600F040F9194AD061916849B16D
:1004D000022C06D19169411A0A2902D90021116220
:1004E000906110BD022C0CD0042C11D0082C16D019
:1004F000102CF6D19169401A0A28F2D901F088F936
:1005000013E09169401A0A28EBD901F095F90CE043
:100510009169401A0A28E4D901F06EF905E0916961
:10052000401A0A28DDD901F07DF9D069D8E700002A
:1005300014000020044910B50A68024202D0086085
:10054000FFF7BEFF10BD0000140401402DE9F84F75
:10055000DFF8B8910024A9F1040B23460F2709F115
:10056000040AABF1040EC9E00125A5402A40AA42C5
:100570007DD1674ED1F804C0ACEB0608B44532D04B
:1005800014DCBCF1030F3AD009DCBCF1000F2AD017
:10059000BCF1010F1CD0BCF1020F31D11DE0BCF148
:1005A000110F17D0BCF1120F2AD119E0B8F5881F2E
:1005B00019D006DCB8F5803F15D0B8F5801F1FD1E3
:1005C00011E0B8F5001F0ED0B8F5041F18D10AE0ED
:1005D000CB6815E0CB681B1D12E0CB6808330FE039
:1005E000CB680C330CE08B682BB1012B4FF0080368
:1005F00003D0456104E0042302E0056100E000232C
:10060000FF2A01D8064601E000F104064FEA8405FE
:1006100001D9A5F12005D6F8008007FA05FC28EAE3
:100620000C0803FA05F548EA0508C6F800804D688D
:10063000ED0062D5374DAE6946F00106AE61AD6999
:1006400024F0030605F001050095334D06EB050C7B
:10065000DCF80850A607360F07FA06F825EA080561
:10066000DFF8B880404503D14FF0000817E044E0C0
:10067000DFF8AC80404502D14FF001080FE0DFF811
:10068000A480404502D14FF0020808E0DFF89880CE
:10069000404502D14FF0030801E04FF0040808FA8A
:1006A00006F848EA0508CCF808804D68D9F80060DB
:1006B000ED024D4601D5164300E096432E604D688D
:1006C000DAF80060AD02554601D5164300E09643C6
:1006D0002E604D68DBF80060AD035D4601D5164322
:1006E00000E096432E604D68DEF80060ED0375462D
:1006F00001D5164300E096432E60641C0D682A461F
:10070000E5407FF431AFBDE8F88F000008040140F8
:1007100000001110001002400000014000080140DC
:10072000000C01400010014000140140C26821EAA1
:1007300002030A4043EA0241016170470AB10161C4
:1007400070470904FBE7000001488068704700001B
:10075000440000200248816802781144816070479B
:1007600044000020074810B5016841F01001016005
:10077000032000F075F80F2000F006F800F024F8D0
:10078000002010BD0020024070B50D4D04464FF40E
:100790007A712878B1FBF0F00A490968B1FBF0F0F2
:1007A00000F0FBFB48B9102C07D200222146501E56
:1007B00000F036F800206C6070BD012070BD0000B4
:1007C00044000020500000200C4808B5816941F029
:1007D00001018161816901F001010091C16941F06C
:1007E0008051C161C06900F08050009004484168A8
:1007F00021F0E06141F00071416008BD001002404D
:1008000000000140002809DB00F01F020121914097
:100810004009800000F1E020C0F80011704700009E
:10082000F0B40E4B1B680C46C3F30223C3F107055B
:10083000042D00D90425191D072901D2002300E049
:10084000DB1E012606FA05F1491E214099409E4013
:10085000761E16403143F0BC00F0BEBF0CED00E048
:10086000064900F0070208684FF6FF03184040EA07
:100870000220034A10430860704700000CED00E0BE
:100880000000FA052DE9F0470F46050061D0434E00
:10089000306800F00700B84209D2306820F0070045
:1008A00038433060306800F00700B84251D1286802
:1008B0003B4C810712D5400703D5606840F4E060E7
:1008C00060602878000703D5606840F4605060607D
:1008D0006068A96820F0F000084360602878C007CD
:1008E00028D06868012810D02168022810D0890714
:1008F00000292EDA616821F0030101436160FFF7EE
:1009000023FF804641F288390DE021688903EFE733
:100910008901EDE7FFF718FFA0EB0801494502D96F
:100920000320BDE8F0876068696800F00C00B0EB58
:10093000810FEFD1306800F00700B8420BD9306862
:1009400020F0070038433060306800F00700B842FC
:1009500001D00120E5E72878400705D56068E968FF
:1009600020F4E060084360602878000706D56068DE
:10097000296920F4605040EAC100606000F018F876
:100980006168084AC1F30311515CC8400649086018
:1009900006480068FFF7F8FE0020C2E7002002408A
:1009A00000100240C5200008500000204800002030
:1009B0000E4A51680E4801F00C03042B11D0082B8D
:1009C0000FD10C48C1F38343C903C05C0AD55168F9
:1009D000084AC1F34041921E515C054A5043B0FBA6
:1009E000F1F070470449484370470000001002408E
:1009F00000127A00B520000800093D002DE9F84FEB
:100A0000040070D02078C04DC00749D06868C0F39A
:100A10008100012807D06868C0F38100022809D14D
:100A20006868C00306D52868800339D56068002847
:100A3000E7D035E06068B0F5803F0BD010B1B0F57D
:100A4000A02F11D0286820F480302860286820F476
:100A5000802002E0286840F480302860606890B10F
:100A6000FFF772FE06460AE0286840F480202860FE
:100A7000F0E700BFFFF768FE801B642873D8286882
:100A80008003F7D50CE0FFF75FFE064605E000BFE8
:100A9000FFF75AFE801B6428F0D828688003F7D43B
:100AA00020789A4E80074FF001094FF0000839D5A1
:100AB000686810F00C0F07D06868C0F38100022846
:100AC00009D16868C00306D42868800714D5206956
:100AD000012808D110E02069B0B1C6F80090FFF7F6
:100AE00033FE074605E00AE1FFF72EFEC01B022891
:100AF000C4D828688007F7D52868616920F0F80015
:100B000040EAC10028600DE0C6F80080FFF71CFE37
:100B1000074604E0FFF718FEC01B022823D8286808
:100B20008007F7D4207800072CD57948A169D9B17E
:100B3000C0F80090FFF708FE074604E0FFF704FE48
:100B4000C01B02280FD8686A8007F7D571484FF498
:100B5000FA510068B0FBF1F0009000BF0098411E10
:100B60000091FAD20EE080E0C0F80080FFF7ECFDC3
:100B7000074604E0FFF7E8FDC01B022875D8686A45
:100B80008007F7D42078400760D5E8690027C000C7
:100B900008D4E86940F08050E861E869012700F076
:100BA000805000905C480168C90513D401688346F1
:100BB00041F480710160FFF7C7FD824606E000BF87
:100BC000FFF7C2FDA0EB0A0064284ED8DBF8000056
:100BD000C005F5D5E06801280AD008B1052813D072
:100BE000286A20F001002862286A20F0040002E050
:100BF000286A40F001002862E06841F2883B98B121
:100C0000FFF7A2FD82460BE0286A40F0040028624C
:100C1000EEE700BFFFF798FDA0EB0A0159455AD84F
:100C2000286A8007F6D50CE0FFF78EFD824605E0C6
:100C3000FFF78AFDA0EB0A0159454CD8286A8007C6
:100C4000F6D41FB1E86920F08050E861E06988B30C
:100C50006968C1F38101022944D00228C6F8608086
:100C600004D0FFF771FD044638E034E0FFF76CFD77
:100C7000074604E0FFF768FDC01B02282BD8286850
:100C80008001F7D4206AB0F5803F05D16868A1687B
:100C900020F4003008436860D4E90801084369681B
:100CA00021F4741108436860C6F86090FFF74CFDAA
:100CB000044606E025E000BFFFF746FD001B0228C2
:100CC00009D828688001F7D51BE000BFFFF73CFD7D
:100CD000001B022802D90320BDE8F88F2868800194
:100CE000F4D40EE00128F7D06868226A00F480315D
:100CF000914204D1616A00F47010884201D0012051
:100D0000EAE70020E8E7000000100240000042424D
:100D100080044242500000200070004070B5040082
:100D200009D0606A002540B125616561A56294F82B
:100D3000510040B10CE0012070BD6068B0F5827FC9
:100D4000F4D0E561F2E784F85050204600F040F816
:100D5000022084F851002068016821F04001016000
:100D6000A088218900F4827001F404410843A1891C
:100D700001F400610843217C01F002010843217D58
:100D800001F001010843218B01F400710843217F28
:100D900001F03801084394F8201001F08001084365
:100DA000218D01F40051084321680860A0690421E5
:100DB00001EA1040216848602068C16921F400619F
:100DC000C1616565012084F85100002070BD0000FC
:100DD00000B585B000210091019102910391006856
:100DE0000F4988421AD10F48816941F480518161CD
:100DF000816901F480510491816941F004018161AC
:100E00008069694600F004000490A0200090022050
:100E10000190032003900448FFF798FB05B000BD44
:100E20000030014000100240000801402DE9F84F59
:100E3000044690F850000026984615468A46012838
:100E40000CD0012784F85070FFF77EFC814694F89F
:100E50005100B346012804D002269AE00220BDE8E2
:100E6000F88FBAF1000F6FD0002D6DD0032084F8F9
:100E70005100C4F854B0C4F830A0A586E586C4F883
:100E800038B0A4F83CB0A4F83EB0C4F844B0C4F8FC
:100E900040B0A068B0F5004F09D12068016821F08A
:100EA000400101602068016841F4804101602068D0
:100EB0000168490603D4016841F040010160E0681F
:100EC000B0F5006F606803D058B3012D29D049E018
:100ED00008B1012D1FD1206B21680088C86006E091
:100EE00020688168890709D5216B0988C160206B5A
:100EF000801C2063E08E401EE0860CE0FFF724FC9F
:100F0000A0EB0901414503D3B8F1FF3F03D006E050
:100F1000B8F1000F03D0E08E0028E1D125E00326D0
:100F200035E0206B21680078087306E0206881684E
:100F300089070AD5216B09780173206B401C206357
:100F4000E08E401EE0860DE01FE0FFF7FDFBA0EB0A
:100F50000901414503D3B8F1FF3F03D0DFE7B8F102
:100F6000000FDCD0E08E0028E0D14A464146204602
:100F700000F0A1F908B120206065A06818B92068C8
:100F8000C16880680090606D08B1012601E084F8B6
:100F9000517084F850B0304661E710B5401EB0F192
:100FA000807F01D3012010BD4FF0E02460610F214C
:100FB000601700F011FC0020A061072020610020D4
:100FC00010BDFEE770B5114C6068A12811D22068F1
:100FD00080280EDC00280CDB032511E054F83510C6
:100FE000206888420BD104EBC501606849688842DB
:100FF00005D100F00FF800F0D9F8FFF791F96D1C5A
:101000000348C0688542E9DD70BD0000AC000020E7
:10101000140000203EB54FF47844204600F07AFAE0
:101020004FF6E070CDE90104074808A2416800913D
:10103000036850212B2000F0ABF907484068BDE859
:101040003E40FFF72BBA000000000020594F55200A
:101050004C4F535400000000140000202DE9F041D3
:1010600086B000243A480094019402940394816964
:1010700041F010018161816901F0100104918169E1
:1010800041F020018161816901F0200104918169B1
:1010900041F004018161816901F0040104918169D9
:1010A00041F00801816180692A4F00F008004FF487
:1010B00000550490002229463846FFF73FFBDFF831
:1010C00098804FF4E046002231464046FFF736FB59
:1010D0000320CDE902400095012569460195384677
:1010E000FFF734FA1E2000901C48CDE9010569463F
:1010F0001B48FFF72BFA0220CDE90240CDE900653D
:1011000069464046FFF722FA002211460720FFF702
:1011100087FB0720FFF776FB002211460820FFF728
:101120007FFB0820FFF76EFB002211460920FFF726
:1011300077FB0920FFF766FB002211460A20FFF724
:101140006FFB0A20FFF75EFB06B0BDE8F0810000F0
:101150000010024000100140000C0140000011107E
:10116000000801400F4810B50D4901604FF482712D
:10117000416000218160C1604FF400720161C0E9EB
:1011800005121822C0E90721416281620A21C16269
:10119000FFF7C4FD002801D072B6FEE710BD0000C5
:1011A0000030014054000020FEE700002DE9FE431E
:1011B000214D4FF001084FF6E0763046C5F8088023
:1011C00000F0A8F94FF478471C4CCDE9017660682F
:1011D00000901BA250212420236800F0D9F8CDE90B
:1011E00001766068009019A25A212420236800F03B
:1011F000CFF80520FFF752F9C5F820800120FFF74E
:101200004DF9286A0028F9D14FF400511248FFF730
:101210008DFA304600F07EF9CDE9017660680090E5
:101220000EA250210820236800F0B2F86868BDE8DB
:10123000FE43FFF733B90000140000200000002037
:10124000505245535320555000000000544F205336
:1012500054415254000000000010014047414D45E8
:10126000205354415254494E472E2E2E0000000068
:10127000FEE7000010B5FEF789FF162190FBF1F2A2
:1012800001FB12000A4C00EB40006FF0010101EB82
:1012900040002060FEF77AFF1B2190FBF1F201FB7A
:1012A000120000EB4000022101EB4000606010BD25
:1012B0003C000020704738B50B46009204460022DF
:1012C000802100F009F8002804D0606D40F0200073
:1012D0006065032038BD00002DE9F8431E469146A5
:1012E00088460446089DFFF72FFA401B351AFFF782
:1012F0002BFA074625480068C0F3CB30684338E036
:10130000701C37D0FFF720FAC01BA84203D215B1DA
:10131000009860B32CE02068416821F0E001416052
:101320006068B0F5827F0BD1A068B0F5004F02D0A5
:10133000B0F5806F04D12068016821F040010160A0
:10134000A06AB0F5005F09D12068016821F400515E
:1013500001602068016841F400510160012084F8B7
:101360005100002084F850000320BDE8F8830025D8
:10137000401E00902068816838EA010004D00021F6
:101380004945BDD10020F0E70121F9E750000020D8
:101390002DE9FE4FDFF874B014460E4605464FF4B3
:1013A000804A9846002251465846FFF7C7F9DFF8B1
:1013B000609008F0FF071EE0B9F9063079199942EC
:1013C0000BDBC8F307218B199EB2B9F90400002585
:1013D0003144814212DA202A0CD0DDE90D01CDE939
:1013E00001010C98009043463146284600F04EF922
:1013F000781985B2641C2278002ADDD103B05146E9
:101400005846BDE8F04F0122FFF798B9000C0140A3
:10141000080000202DE9F04110F8015B044617E0B8
:10142000207800F07BF96078A41C00F0800730F091
:10143000800604D03146204600F084F934443FB1A0
:1014400014F8010BFF2801D14FF4FA70FFF726F8CA
:101450006D1EEDB2E4D2BDE8F08100002DE9F84F39
:10146000074629480E46DDF82880B0F906101C46CC
:1014700015468F4246DAB0F90400864242DA7A19FC
:10148000521E8A4201DBC91B8DB23119491E8142AD
:1014900001DB801B84B2DFF874904FF4804A002295
:1014A00051464846FFF74AF93019401EC3B2781931
:1014B000401EC2B2F1B2F8B200F068F84FEA18204C
:1014C0008DF8000001228DF8018051034846FFF796
:1014D00035F926464FF0FF370DE02C4607E03B4636
:1014E000022269460A48FFF7A1FC641EA4B2002C40
:1014F000F5D1761EB6B2002EEFD1012251464846F4
:10150000FFF71CF9BDE8F88F08000020000C01402F
:101510005400002008B5009004488188C0888BB230
:1015200082B200210846FFF799FF08BD080000209D
:1015300070B5144D4FF48044002221462846FFF731
:10154000FDF8A610002231462846FFF7F7F81420D0
:10155000FEF7A4FF012231462846FFF7EFF80A48BC
:10156000FFF758FF08483B30FFF754FF0648483064
:10157000FFF750FF21462846BDE870400122FFF7E3
:10158000DDB80000000C014040200008F8B504461A
:101590001D4616460F462A2000F0C0F82146104C82
:1015A00000200090607801448DF8011030448DF8DF
:1015B00003000421684600F0C5F82B2000F0AEF8C7
:1015C000A07839188DF8011028448DF80300042103
:1015D000684600F0B7F82C2000F0A0F8F8BD000035
:1015E000080000202DE9F84F264C00F00300DFF83A
:1015F00098A020704FF48049002249465046FFF7DA
:101600009DF8362000F08AF821780125022604F1A1
:10161000080080274FF0A00831B101290CD0022921
:101620000CD0032927D116E001784278C078114305
:1016300001438DF8001004E041780DE0C0788DF88A
:1016400000000121684600F07DF8E780A4F80480DE
:101650006670A5700FE001788278C078114301436D
:101660008DF800100121684600F06CF8A4F806809F
:10167000A7806570A67049465046BDE8F84F012224
:10168000FFF75CB808000020000C01400FB42DE902
:10169000FF5F4A1EC3F307263244D4B2DFB2421EB4
:1016A000DDE913A93A44D2B2C9B2C0B22346FFF76A
:1016B0006DFF00252CE010981299203800FB065091
:1016C000002431F810804FEA1A2002900AF0FF003F
:1016D00001904FEA192009F0FF0B009015E000BFC0
:1016E00008FA04F0000406D502988DF80C00019861
:1016F0008DF80D0004E000988DF80C008DF80DB009
:10170000022103A800F01EF8641CA742E8D86D1C53
:10171000AE42D0D8BDE8FF1F5DF814FB01B5002232
:101720004FF400510548FFF709F84FF0FF3301224D
:1017300069460348FFF77AFB08BD0000000C014032
:101740005400002070B50D4604460122510306489E
:10175000FEF7F4FFAAB22146BDE870404FF0FF3318
:101760000248FFF763BB0000000C0140540000205A
:101770007047FEF7EFBF30B58FB028216846FEF7FF
:101780005DFD14210AA8FEF759FD01210804CDE9E9
:1017900000100024029402250491CDE907504FF473
:1017A000E01009906846FFF729F908B172B6FEE724
:1017B0000F20CDE90A054FF48060CDE90C400221ED
:1017C0000AA80E94FFF75EF8002801D072B6FEE773
:1017D0000FB030BD7047FEE70907090E002804DB93
:1017E00000F1E02080F80014704700F00F0000F1D5
:1017F000E02080F8141D70470448016A022901D0D6
:10180000032901D10121016270470000140000206A
:101810000348016A09B1012901D10321016270471E
:10182000140000200348016A09B1012901D10221F5
:1018300001627047140000200448016A022901D0A7
:10184000032901D10021016270470000140000202B
:10185000FEF788FFFFF78FFFFFF700FCFFF782FC22
:10186000FFF766FE0220FFF7BDFE184D4FF400564D
:1018700031462846FEF75AFFFFF798FC31462846C6
:10188000FEF754FFFEF74CFD31462846FEF74EFFAB
:101890000F4C31462846FEF749FF2068FEF7FEFD53
:1018A000FEF77EFD31462846FEF740FF2068FEF732
:1018B000F5FDFFF787FB31462846FEF737FF206826
:1018C000FEF7ECFDFEF7A6FDE3E700000010014087
:1018D00014000020000000000000000000000000D4
:1018E00000000000000000000010001000100010B8
:1018F0000010001000000010000000000028002868
:1019000000280000000000000000000000000000AF
:1019100000240024007C00240048007C004800488B
:10192000000000000038005400500038001400543B
:10193000005400380010000000200054005800300F
:1019400000280054001400080000000000100028C7
:101950000028001000340048004800340000000057
:101960000010001000100000000000000000000047
:1019700000000000000800100020002000200020CF
:1019800000200020001000080020001000080008BF
:1019900000080008000800080010002000100038AF
:1019A00000100028000000000000000000000000FF
:1019B0000000000000100010007C0010001000006B
:1019C0000000000000000000000000000000000017
:1019D00000000010001000100000000000000000D7
:1019E00000000038000000000000000000000000BF
:1019F00000000000000000000000001000000000D7
:101A00000008000800100010001000100020002046
:101A1000000000000038004400440054004400442A
:101A2000004400380000000000100030005000109A
:101A300000100010001000100000000000380044EA
:101A400000440004000800100020007C000000009A
:101A5000003800440004001800040004004400386A
:101A60000000000000080018002800280048007C42
:101A70000008000800000000007C004000400078E2
:101A80000004000400440038000000000038004456
:101A9000004000780044004400440038000000008A
:101AA000007C00040008001000100020002000202E
:101AB00000000000003800440044003800440044A6
:101AC0000044003800000000003800440044004496
:101AD000003C00040044003800000000000000004A
:101AE00000100000000000000000001000000000D6
:101AF00000000000000000100000000000000010C6
:101B00000010001000000000000C00300040003009
:101B1000000C000000000000000000000000007C3D
:101B20000000007C00000000000000000000000039
:101B300000600018000400180060000000000000B1
:101B400000380044000400080010001000000010DD
:101B50000000000000380044004C0054005C0040CD
:101B60000040003800000000001000280028002875
:101B70000028007C0044004400000000007800447D
:101B80000044007800440044004400780000000055
:101B9000003800440040004000400040004400384D
:101BA000000000000070004800440044004400446D
:101BB0000048007000000000007C00400040007CF5
:101BC000004000400040007C00000000007C00401D
:101BD000004000780040004000400040000000004D
:101BE0000038004400400040005C004400440038DD
:101BF00000000000004400440044007C0044004415
:101C000000440044000000000038001000100010E4
:101C10000010001000100038000000000004000454
:101C20000004000400040004004400380000000028
:101C30000044004800500060005000480048004444
:101C40000000000000400040004000400040004014
:101C50000040007C000000000044006C006C005458
:101C600000440044004400440000000000440064BC
:101C7000006400540054004C004C0044000000007C
:101C8000003800440044004400440044004400384C
:101C90000000000000780044004400440078004048
:101CA00000400040000000000038004400440044B0
:101CB0000044004400540038000400000078004450
:101CC0000044004400780048004800440000000040
:101CD0000038004400400030000800040044003890
:101CE00000000000007C0010001000100010001028
:101CF00000100010000000000044004400440044B4
:101D00000044004400440038000000000044004447
:101D100000440028002800280010001000000000E7
:101D200000440044005400540054006C0028002873
:101D300000000000004400280028001000100028C7
:101D4000002800440000000000440044002800284F
:101D5000001000100010001000000000007C0004C3
:101D600000080010001000200040007C000000006F
:101D700000180010001000100010001000100010DB
:101D800000100018002000200010001000100010AB
:101D900000080008000000000030001000100010D3
:101DA000001000100010001000100030001000287B
:101DB00000280044000000000000000000000000B7
:101DC0000000000000000000000000000000000013
:101DD000000000FE002000100000000000000000D5
:101DE0000000000000000000000000000038004477
:101DF000003C0044004C0034000000000040004063
:101E000000580064004400440064005800000000D2
:101E1000000000000038004400400040004400384A
:101E200000000000000400040034004C00440044A2
:101E3000004C0034000000000000000000380044A6
:101E4000007C00400044003800000000000C00103E
:101E5000007C0010001000100010001000000000B6
:101E6000000000000034004C00440044004C0034EA
:101E70000004007800400040005800640044004422
:101E8000004400440000000000100000007000103A
:101E900000100010001000100000000000100000F2
:101EA000007000100010001000100010001000E082
:101EB00000400040004800500060005000480044CE
:101EC0000000000000700010001000100010001052
:101ED0000010001000000000000000000078005416
:101EE00000540054005400540000000000000000A2
:101EF0000058006400440044004400440000000016
:101F00000000000000380044004400440044003851
:101F1000000000000000000000580064004400447D
:101F20000064005800400040000000000034004CF5
:101F300000440044004C0034000400040000000091
:101F400000580064004000400040004000000000D5
:101F50000000000000380044003000080044003851
:101F60000000000000200020007800200020002059
:101F700000200018000000000000000000440044A1
:101F800000440044004C0034000000000000000049
:101F90000044004400280028002800100000000031
:101FA00000000000005400540054006C0028002879
:101FB0000000000000000000004400280010001095
:101FC000002800440000000000000000004400441D
:101FD0000028002800100010001000600000000021
:101FE000007C0008001000200040007C0000000081
:101FF0000018001000100010002000200010001039
:102000000010001800100010001000100010001048
:102010000010001000100010003000100010001020
:102020000008000800100010001000300000000040
:1020300000000074004C00000000000000000000E0
:102040000F0180961180FFB103012C2DB203012CEA
:102050002DB306012C2D012C2DB40107C003A202C3
:1020600084C101C5C2020A00C3028A2AC4028AEEE0
:10207000C5010E20003601C03A0105022A04000005
:10208000007F2B040000007F04E010021C071237C1
:1020900032292D29252B3900010310E110031D07DA
:1020A000062E2C292D2E2E373F0000021013800AF9
:1020B000298064010202030405060708090A0B0CC3
:1020C0000D0E0F10100000000000000000010203C0
:1020D0000406070809000000F8200008000000209E
:1020E00054000000280100084C2100085400002082
:1020F000BC0A000044010008070A0000D4180008C8
:1021000000020100A000800040802000C800000004
:10211000D007000000000000050000007A00000069
:102120009A00000000000000000000000000000015
:10213000000000000000000000000000010000009E
:0C21400010000000000000000024F4006B
:04000005080000ED02
:00000001FF
